{
  "address": "0x5FbDB2315678afecb367f032d93F642f64180aa3",
  "abi": [
    {
      "inputs": [],
      "stateMutability": "nonpayable",
      "type": "constructor"
    },
    {
      "inputs": [
        {
          "internalType": "string",
          "name": "_username",
          "type": "string"
        },
        {
          "internalType": "address",
          "name": "_address",
          "type": "address"
        }
      ],
      "name": "addCandidateUser",
      "outputs": [],
      "stateMutability": "nonpayable",
      "type": "function"
    },
    {
      "inputs": [
        {
          "internalType": "string",
          "name": "_username",
          "type": "string"
        },
        {
          "internalType": "address",
          "name": "_address",
          "type": "address"
        }
      ],
      "name": "addRecruiterUser",
      "outputs": [],
      "stateMutability": "nonpayable",
      "type": "function"
    },
    {
      "inputs": [
        {
          "internalType": "uint256",
          "name": "",
          "type": "uint256"
        }
      ],
      "name": "arrHash",
      "outputs": [
        {
          "internalType": "bytes32",
          "name": "",
          "type": "bytes32"
        }
      ],
      "stateMutability": "view",
      "type": "function"
    },
    {
      "inputs": [
        {
          "internalType": "uint256",
          "name": "",
          "type": "uint256"
        }
      ],
      "name": "candidate",
      "outputs": [
        {
          "internalType": "string",
          "name": "name",
          "type": "string"
        },
        {
          "internalType": "address",
          "name": "add",
          "type": "address"
        }
      ],
      "stateMutability": "view",
      "type": "function"
    },
    {
      "inputs": [
        {
          "internalType": "string",
          "name": "_username",
          "type": "string"
        },
        {
          "internalType": "address",
          "name": "_address",
          "type": "address"
        }
      ],
      "name": "candidateValidate",
      "outputs": [
        {
          "internalType": "bool",
          "name": "",
          "type": "bool"
        }
      ],
      "stateMutability": "view",
      "type": "function"
    },
    {
      "inputs": [
        {
          "internalType": "string",
          "name": "_docName",
          "type": "string"
        }
      ],
      "name": "documentPush",
      "outputs": [
        {
          "internalType": "bytes32",
          "name": "",
          "type": "bytes32"
        }
      ],
      "stateMutability": "view",
      "type": "function"
    },
    {
      "inputs": [
        {
          "internalType": "string",
          "name": "_docName",
          "type": "string"
        },
        {
          "internalType": "string",
          "name": "_docId",
          "type": "string"
        }
      ],
      "name": "hashArray",
      "outputs": [],
      "stateMutability": "nonpayable",
      "type": "function"
    },
    {
      "inputs": [
        {
          "internalType": "bytes32",
          "name": "_hash",
          "type": "bytes32"
        }
      ],
      "name": "hashVerify",
      "outputs": [
        {
          "internalType": "bool",
          "name": "",
          "type": "bool"
        }
      ],
      "stateMutability": "view",
      "type": "function"
    },
    {
      "inputs": [],
      "name": "i_owner",
      "outputs": [
        {
          "internalType": "address",
          "name": "",
          "type": "address"
        }
      ],
      "stateMutability": "view",
      "type": "function"
    },
    {
      "inputs": [],
      "name": "i_ownerName",
      "outputs": [
        {
          "internalType": "string",
          "name": "",
          "type": "string"
        }
      ],
      "stateMutability": "view",
      "type": "function"
    },
    {
      "inputs": [
        {
          "internalType": "uint256",
          "name": "",
          "type": "uint256"
        }
      ],
      "name": "recruiter",
      "outputs": [
        {
          "internalType": "string",
          "name": "name",
          "type": "string"
        },
        {
          "internalType": "address",
          "name": "add",
          "type": "address"
        }
      ],
      "stateMutability": "view",
      "type": "function"
    },
    {
      "inputs": [
        {
          "internalType": "string",
          "name": "_username",
          "type": "string"
        },
        {
          "internalType": "address",
          "name": "_address",
          "type": "address"
        }
      ],
      "name": "recruiterValidate",
      "outputs": [
        {
          "internalType": "bool",
          "name": "",
          "type": "bool"
        }
      ],
      "stateMutability": "view",
      "type": "function"
    },
    {
      "inputs": [
        {
          "internalType": "string",
          "name": "_docName",
          "type": "string"
        },
        {
          "internalType": "string",
          "name": "_docId",
          "type": "string"
        }
      ],
      "name": "uplodeCandidateDocument",
      "outputs": [],
      "stateMutability": "nonpayable",
      "type": "function"
    },
    {
      "inputs": [
        {
          "internalType": "address",
          "name": "",
          "type": "address"
        },
        {
          "internalType": "uint256",
          "name": "",
          "type": "uint256"
        }
      ],
      "name": "userData",
      "outputs": [
        {
          "internalType": "string",
          "name": "docName",
          "type": "string"
        },
        {
          "internalType": "string",
          "name": "docId",
          "type": "string"
        }
      ],
      "stateMutability": "view",
      "type": "function"
    }
  ],
  "transactionHash": "0x4f3b934886479e8d255529acab37c97a3e84d65c423d2c24eae62a97af8cd78b",
  "args": [],
  "numDeployments": 1,
  "solcInputHash": "61cdd64e31f9c2f5e023047719b193d5",
  "bytecode": "0x60a06040526040518060400160405280600781526020017f6268617261746800000000000000000000000000000000000000000000000000815250600190816200004a91906200030d565b503480156200005857600080fd5b503373ffffffffffffffffffffffffffffffffffffffff1660808173ffffffffffffffffffffffffffffffffffffffff1681525050620003f4565b600081519050919050565b7f4e487b7100000000000000000000000000000000000000000000000000000000600052604160045260246000fd5b7f4e487b7100000000000000000000000000000000000000000000000000000000600052602260045260246000fd5b600060028204905060018216806200011557607f821691505b6020821081036200012b576200012a620000cd565b5b50919050565b60008190508160005260206000209050919050565b60006020601f8301049050919050565b600082821b905092915050565b600060088302620001957fffffffffffffffffffffffffffffffffffffffffffffffffffffffffffffffff8262000156565b620001a1868362000156565b95508019841693508086168417925050509392505050565b6000819050919050565b6000819050919050565b6000620001ee620001e8620001e284620001b9565b620001c3565b620001b9565b9050919050565b6000819050919050565b6200020a83620001cd565b620002226200021982620001f5565b84845462000163565b825550505050565b600090565b620002396200022a565b62000246818484620001ff565b505050565b5b818110156200026e57620002626000826200022f565b6001810190506200024c565b5050565b601f821115620002bd57620002878162000131565b620002928462000146565b81016020851015620002a2578190505b620002ba620002b18562000146565b8301826200024b565b50505b505050565b600082821c905092915050565b6000620002e260001984600802620002c2565b1980831691505092915050565b6000620002fd8383620002cf565b9150826002028217905092915050565b620003188262000093565b67ffffffffffffffff8111156200033457620003336200009e565b5b620003408254620000fc565b6200034d82828562000272565b600060209050601f83116001811462000385576000841562000370578287015190505b6200037c8582620002ef565b865550620003ec565b601f198416620003958662000131565b60005b82811015620003bf5784890151825560018201915060208501945060208101905062000398565b86831015620003df5784890151620003db601f891682620002cf565b8355505b6001600288020188555050505b505050505050565b608051611b446200041760003960008181610c650152610db00152611b446000f3fe608060405234801561001057600080fd5b50600436106100ea5760003560e01c8063c0d37c701161008c578063dba6335f11610066578063dba6335f14610284578063e09407dd146102a2578063e6d06215146102d2578063f277905c146102ee576100ea565b8063c0d37c7014610206578063c305609614610236578063ce88f98014610266576100ea565b806337a38c77116100c857806337a38c77146101585780633c05eca1146101885780634f1b55f7146101b95780637366e8ca146101d5576100ea565b806304dbc804146100ef5780630f925a9f1461010b5780631de43c4b14610127575b600080fd5b6101096004803603810190610104919061114e565b61031e565b005b6101256004803603810190610120919061114e565b610483565b005b610141600480360381019061013c91906111e0565b6105e8565b60405161014f92919061129b565b60405180910390f35b610172600480360381019061016d91906112cb565b6106c4565b60405161017f919061132d565b60405180910390f35b6101a2600480360381019061019d9190611348565b610874565b6040516101b0929190611388565b60405180910390f35b6101d360048036038101906101ce91906113bf565b6109c5565b005b6101ef60048036038101906101ea91906111e0565b610a73565b6040516101fd92919061129b565b60405180910390f35b610220600480360381019061021b91906111e0565b610b4f565b60405161022d919061132d565b60405180910390f35b610250600480360381019061024b9190611463565b610b73565b60405161025d91906114ab565b60405180910390f35b61026e610bd5565b60405161027b91906114c6565b60405180910390f35b61028c610c63565b60405161029991906114e8565b60405180910390f35b6102bc60048036038101906102b7919061114e565b610c87565b6040516102c991906114ab565b60405180910390f35b6102ec60048036038101906102e791906113bf565b610dae565b005b6103086004803603810190610303919061114e565b610e6f565b60405161031591906114ab565b60405180910390f35b6000805b6002805490508110156103bf578273ffffffffffffffffffffffffffffffffffffffff166002828154811061035a57610359611503565b5b906000526020600020906002020160010160009054906101000a900473ffffffffffffffffffffffffffffffffffffffff1673ffffffffffffffffffffffffffffffffffffffff16036103ac57600191505b80806103b790611561565b915050610322565b506000810361047e57600360405180604001604052808581526020018473ffffffffffffffffffffffffffffffffffffffff168152509080600181540180825580915050600190039060005260206000209060020201600090919091909150600082015181600001908161043391906117b5565b5060208201518160010160006101000a81548173ffffffffffffffffffffffffffffffffffffffff021916908373ffffffffffffffffffffffffffffffffffffffff16021790555050505b505050565b6000805b600280549050811015610524578273ffffffffffffffffffffffffffffffffffffffff16600282815481106104bf576104be611503565b5b906000526020600020906002020160010160009054906101000a900473ffffffffffffffffffffffffffffffffffffffff1673ffffffffffffffffffffffffffffffffffffffff160361051157600191505b808061051c90611561565b915050610487565b50600081036105e357600260405180604001604052808581526020018473ffffffffffffffffffffffffffffffffffffffff168152509080600181540180825580915050600190039060005260206000209060020201600090919091909150600082015181600001908161059891906117b5565b5060208201518160010160006101000a81548173ffffffffffffffffffffffffffffffffffffffff021916908373ffffffffffffffffffffffffffffffffffffffff16021790555050505b505050565b600281815481106105f857600080fd5b906000526020600020906002020160009150905080600001805461061b906115d8565b80601f0160208091040260200160405190810160405280929190818152602001828054610647906115d8565b80156106945780601f1061066957610100808354040283529160200191610694565b820191906000526020600020905b81548152906001019060200180831161067757829003601f168201915b5050505050908060010160009054906101000a900473ffffffffffffffffffffffffffffffffffffffff16905082565b600080600090505b6000803373ffffffffffffffffffffffffffffffffffffffff1673ffffffffffffffffffffffffffffffffffffffff16815260200190815260200160002080549050811015610867578260405160200161072691906118c3565b604051602081830303815290604052805190602001206000803373ffffffffffffffffffffffffffffffffffffffff1673ffffffffffffffffffffffffffffffffffffffff168152602001908152602001600020828154811061078c5761078b611503565b5b90600052602060002090600202016000016040516020016107ad919061195d565b6040516020818303038152906040528051906020012003610854576000803373ffffffffffffffffffffffffffffffffffffffff1673ffffffffffffffffffffffffffffffffffffffff168152602001908152602001600020818154811061081857610817611503565b5b90600052602060002090600202016040516020016108369190611a4d565b6040516020818303038152906040528051906020012091505061086f565b808061085f90611561565b9150506106cc565b506000801b90505b919050565b6000602052816000526040600020818154811061089057600080fd5b9060005260206000209060020201600091509150508060000180546108b4906115d8565b80601f01602080910402602001604051908101604052809291908181526020018280546108e0906115d8565b801561092d5780601f106109025761010080835404028352916020019161092d565b820191906000526020600020905b81548152906001019060200180831161091057829003601f168201915b505050505090806001018054610942906115d8565b80601f016020809104026020016040519081016040528092919081815260200182805461096e906115d8565b80156109bb5780601f10610990576101008083540402835291602001916109bb565b820191906000526020600020905b81548152906001019060200180831161099e57829003601f168201915b5050505050905082565b6000803373ffffffffffffffffffffffffffffffffffffffff1673ffffffffffffffffffffffffffffffffffffffff16815260200190815260200160002060405180604001604052808481526020018381525090806001815401808255809150506001900390600052602060002090600202016000909190919091506000820151816000019081610a5691906117b5565b506020820151816001019081610a6c91906117b5565b5050505050565b60038181548110610a8357600080fd5b9060005260206000209060020201600091509050806000018054610aa6906115d8565b80601f0160208091040260200160405190810160405280929190818152602001828054610ad2906115d8565b8015610b1f5780601f10610af457610100808354040283529160200191610b1f565b820191906000526020600020905b815481529060010190602001808311610b0257829003601f168201915b5050505050908060010160009054906101000a900473ffffffffffffffffffffffffffffffffffffffff16905082565b60048181548110610b5f57600080fd5b906000526020600020016000915090505481565b600080600090505b600480549050811015610bca578260048281548110610b9d57610b9c611503565b5b906000526020600020015403610bb7576001915050610bd0565b8080610bc290611561565b915050610b7b565b50600090505b919050565b60018054610be2906115d8565b80601f0160208091040260200160405190810160405280929190818152602001828054610c0e906115d8565b8015610c5b5780601f10610c3057610100808354040283529160200191610c5b565b820191906000526020600020905b815481529060010190602001808311610c3e57829003601f168201915b505050505081565b7f000000000000000000000000000000000000000000000000000000000000000081565b600080600090505b600280549050811015610da2578273ffffffffffffffffffffffffffffffffffffffff1660028281548110610cc757610cc6611503565b5b906000526020600020906002020160010160009054906101000a900473ffffffffffffffffffffffffffffffffffffffff1673ffffffffffffffffffffffffffffffffffffffff1603610d8f5783604051602001610d2591906118c3565b6040516020818303038152906040528051906020012060028281548110610d4f57610d4e611503565b5b9060005260206000209060020201600001604051602001610d70919061195d565b6040516020818303038152906040528051906020012014915050610da8565b8080610d9a90611561565b915050610c8f565b50600090505b92915050565b7f000000000000000000000000000000000000000000000000000000000000000073ffffffffffffffffffffffffffffffffffffffff163373ffffffffffffffffffffffffffffffffffffffff1603610e6b5760006040518060400160405280848152602001838152509050600481604051602001610e2d9190611aec565b604051602081830303815290604052805190602001209080600181540180825580915050600190039060005260206000200160009091909190915055505b5050565b600080600090505b600380549050811015610f8a578273ffffffffffffffffffffffffffffffffffffffff1660038281548110610eaf57610eae611503565b5b906000526020600020906002020160010160009054906101000a900473ffffffffffffffffffffffffffffffffffffffff1673ffffffffffffffffffffffffffffffffffffffff1603610f775783604051602001610f0d91906118c3565b6040516020818303038152906040528051906020012060038281548110610f3757610f36611503565b5b9060005260206000209060020201600001604051602001610f58919061195d565b6040516020818303038152906040528051906020012014915050610f90565b8080610f8290611561565b915050610e77565b50600090505b92915050565b6000604051905090565b600080fd5b600080fd5b600080fd5b600080fd5b6000601f19601f8301169050919050565b7f4e487b7100000000000000000000000000000000000000000000000000000000600052604160045260246000fd5b610ffd82610fb4565b810181811067ffffffffffffffff8211171561101c5761101b610fc5565b5b80604052505050565b600061102f610f96565b905061103b8282610ff4565b919050565b600067ffffffffffffffff82111561105b5761105a610fc5565b5b61106482610fb4565b9050602081019050919050565b82818337600083830152505050565b600061109361108e84611040565b611025565b9050828152602081018484840111156110af576110ae610faf565b5b6110ba848285611071565b509392505050565b600082601f8301126110d7576110d6610faa565b5b81356110e7848260208601611080565b91505092915050565b600073ffffffffffffffffffffffffffffffffffffffff82169050919050565b600061111b826110f0565b9050919050565b61112b81611110565b811461113657600080fd5b50565b60008135905061114881611122565b92915050565b6000806040838503121561116557611164610fa0565b5b600083013567ffffffffffffffff81111561118357611182610fa5565b5b61118f858286016110c2565b92505060206111a085828601611139565b9150509250929050565b6000819050919050565b6111bd816111aa565b81146111c857600080fd5b50565b6000813590506111da816111b4565b92915050565b6000602082840312156111f6576111f5610fa0565b5b6000611204848285016111cb565b91505092915050565b600081519050919050565b600082825260208201905092915050565b60005b8381101561124757808201518184015260208101905061122c565b60008484015250505050565b600061125e8261120d565b6112688185611218565b9350611278818560208601611229565b61128181610fb4565b840191505092915050565b61129581611110565b82525050565b600060408201905081810360008301526112b58185611253565b90506112c4602083018461128c565b9392505050565b6000602082840312156112e1576112e0610fa0565b5b600082013567ffffffffffffffff8111156112ff576112fe610fa5565b5b61130b848285016110c2565b91505092915050565b6000819050919050565b61132781611314565b82525050565b6000602082019050611342600083018461131e565b92915050565b6000806040838503121561135f5761135e610fa0565b5b600061136d85828601611139565b925050602061137e858286016111cb565b9150509250929050565b600060408201905081810360008301526113a28185611253565b905081810360208301526113b68184611253565b90509392505050565b600080604083850312156113d6576113d5610fa0565b5b600083013567ffffffffffffffff8111156113f4576113f3610fa5565b5b611400858286016110c2565b925050602083013567ffffffffffffffff81111561142157611420610fa5565b5b61142d858286016110c2565b9150509250929050565b61144081611314565b811461144b57600080fd5b50565b60008135905061145d81611437565b92915050565b60006020828403121561147957611478610fa0565b5b60006114878482850161144e565b91505092915050565b60008115159050919050565b6114a581611490565b82525050565b60006020820190506114c0600083018461149c565b92915050565b600060208201905081810360008301526114e08184611253565b905092915050565b60006020820190506114fd600083018461128c565b92915050565b7f4e487b7100000000000000000000000000000000000000000000000000000000600052603260045260246000fd5b7f4e487b7100000000000000000000000000000000000000000000000000000000600052601160045260246000fd5b600061156c826111aa565b91507fffffffffffffffffffffffffffffffffffffffffffffffffffffffffffffffff820361159e5761159d611532565b5b600182019050919050565b7f4e487b7100000000000000000000000000000000000000000000000000000000600052602260045260246000fd5b600060028204905060018216806115f057607f821691505b602082108103611603576116026115a9565b5b50919050565b60008190508160005260206000209050919050565b60006020601f8301049050919050565b600082821b905092915050565b60006008830261166b7fffffffffffffffffffffffffffffffffffffffffffffffffffffffffffffffff8261162e565b611675868361162e565b95508019841693508086168417925050509392505050565b6000819050919050565b60006116b26116ad6116a8846111aa565b61168d565b6111aa565b9050919050565b6000819050919050565b6116cc83611697565b6116e06116d8826116b9565b84845461163b565b825550505050565b600090565b6116f56116e8565b6117008184846116c3565b505050565b5b81811015611724576117196000826116ed565b600181019050611706565b5050565b601f8211156117695761173a81611609565b6117438461161e565b81016020851015611752578190505b61176661175e8561161e565b830182611705565b50505b505050565b600082821c905092915050565b600061178c6000198460080261176e565b1980831691505092915050565b60006117a5838361177b565b9150826002028217905092915050565b6117be8261120d565b67ffffffffffffffff8111156117d7576117d6610fc5565b5b6117e182546115d8565b6117ec828285611728565b600060209050601f83116001811461181f576000841561180d578287015190505b6118178582611799565b86555061187f565b601f19841661182d86611609565b60005b8281101561185557848901518255600182019150602085019450602081019050611830565b86831015611872578489015161186e601f89168261177b565b8355505b6001600288020188555050505b505050505050565b600081905092915050565b600061189d8261120d565b6118a78185611887565b93506118b7818560208601611229565b80840191505092915050565b60006118cf8284611892565b915081905092915050565b600081546118e7816115d8565b6118f18186611887565b9450600182166000811461190c576001811461192157611954565b60ff1983168652811515820286019350611954565b61192a85611609565b60005b8381101561194c5781548189015260018201915060208101905061192d565b838801955050505b50505092915050565b600061196982846118da565b915081905092915050565b600082825260208201905092915050565b60008154611992816115d8565b61199c8186611974565b945060018216600081146119b757600181146119cd57611a00565b60ff198316865281151560200286019350611a00565b6119d685611609565b60005b838110156119f8578154818901526001820191506020810190506119d9565b808801955050505b50505092915050565b60006040830160008084018583036000870152611a268382611985565b925050600184018583036020870152611a3f8382611985565b925050819250505092915050565b60006020820190508181036000830152611a678184611a09565b905092915050565b6000611a7a8261120d565b611a848185611974565b9350611a94818560208601611229565b611a9d81610fb4565b840191505092915050565b60006040830160008301518482036000860152611ac58282611a6f565b91505060208301518482036020860152611adf8282611a6f565b9150508091505092915050565b60006020820190508181036000830152611b068184611aa8565b90509291505056fea2646970667358221220cf29af2271df9cb5efbab3057e14770ee44dc8171bfb4cd4d1d6ced63c9bda0f64736f6c63430008120033",
  "devdoc": {
    "kind": "dev",
    "methods": {},
    "version": 1
  },
  "userdoc": {
    "kind": "user",
    "methods": {},
    "version": 1
  },
  "storageLayout": {
    "storage": [
      {
        "astId": 17,
        "contract": "contracts/Ebv.sol:Ebv",
        "label": "userData",
        "offset": 0,
        "slot": "0",
        "type": "t_mapping(t_address,t_array(t_struct(document)11_storage)dyn_storage)"
      },
      {
        "astId": 22,
        "contract": "contracts/Ebv.sol:Ebv",
        "label": "i_ownerName",
        "offset": 0,
        "slot": "1",
        "type": "t_string_storage"
      },
      {
        "astId": 26,
        "contract": "contracts/Ebv.sol:Ebv",
        "label": "candidate",
        "offset": 0,
        "slot": "2",
        "type": "t_array(t_struct(user)6_storage)dyn_storage"
      },
      {
        "astId": 30,
        "contract": "contracts/Ebv.sol:Ebv",
        "label": "recruiter",
        "offset": 0,
        "slot": "3",
        "type": "t_array(t_struct(user)6_storage)dyn_storage"
      },
      {
        "astId": 33,
        "contract": "contracts/Ebv.sol:Ebv",
        "label": "arrHash",
        "offset": 0,
        "slot": "4",
        "type": "t_array(t_bytes32)dyn_storage"
      }
    ],
    "types": {
      "t_address": {
        "encoding": "inplace",
        "label": "address",
        "numberOfBytes": "20"
      },
      "t_array(t_bytes32)dyn_storage": {
        "base": "t_bytes32",
        "encoding": "dynamic_array",
        "label": "bytes32[]",
        "numberOfBytes": "32"
      },
      "t_array(t_struct(document)11_storage)dyn_storage": {
        "base": "t_struct(document)11_storage",
        "encoding": "dynamic_array",
        "label": "struct Ebv.document[]",
        "numberOfBytes": "32"
      },
      "t_array(t_struct(user)6_storage)dyn_storage": {
        "base": "t_struct(user)6_storage",
        "encoding": "dynamic_array",
        "label": "struct Ebv.user[]",
        "numberOfBytes": "32"
      },
      "t_bytes32": {
        "encoding": "inplace",
        "label": "bytes32",
        "numberOfBytes": "32"
      },
      "t_mapping(t_address,t_array(t_struct(document)11_storage)dyn_storage)": {
        "encoding": "mapping",
        "key": "t_address",
        "label": "mapping(address => struct Ebv.document[])",
        "numberOfBytes": "32",
        "value": "t_array(t_struct(document)11_storage)dyn_storage"
      },
      "t_string_storage": {
        "encoding": "bytes",
        "label": "string",
        "numberOfBytes": "32"
      },
      "t_struct(document)11_storage": {
        "encoding": "inplace",
        "label": "struct Ebv.document",
        "members": [
          {
            "astId": 8,
            "contract": "contracts/Ebv.sol:Ebv",
            "label": "docName",
            "offset": 0,
            "slot": "0",
            "type": "t_string_storage"
          },
          {
            "astId": 10,
            "contract": "contracts/Ebv.sol:Ebv",
            "label": "docId",
            "offset": 0,
            "slot": "1",
            "type": "t_string_storage"
          }
        ],
        "numberOfBytes": "64"
      },
      "t_struct(user)6_storage": {
        "encoding": "inplace",
        "label": "struct Ebv.user",
        "members": [
          {
            "astId": 3,
            "contract": "contracts/Ebv.sol:Ebv",
            "label": "name",
            "offset": 0,
            "slot": "0",
            "type": "t_string_storage"
          },
          {
            "astId": 5,
            "contract": "contracts/Ebv.sol:Ebv",
            "label": "add",
            "offset": 0,
            "slot": "1",
            "type": "t_address"
          }
        ],
        "numberOfBytes": "64"
      }
    }
  }
}