{
  "address": "0xF7baa566219eD31Caa0583AAACD75685C51fB15B",
  "abi": [
    {
      "inputs": [],
      "stateMutability": "nonpayable",
      "type": "constructor"
    },
    {
      "inputs": [
        {
          "internalType": "string",
          "name": "_username",
          "type": "string"
        },
        {
          "internalType": "address",
          "name": "_address",
          "type": "address"
        }
      ],
      "name": "addCandidateUser",
      "outputs": [],
      "stateMutability": "nonpayable",
      "type": "function"
    },
    {
      "inputs": [
        {
          "internalType": "string",
          "name": "_username",
          "type": "string"
        },
        {
          "internalType": "address",
          "name": "_address",
          "type": "address"
        }
      ],
      "name": "addRecruiterUser",
      "outputs": [],
      "stateMutability": "nonpayable",
      "type": "function"
    },
    {
      "inputs": [
        {
          "internalType": "uint256",
          "name": "",
          "type": "uint256"
        }
      ],
      "name": "arrHash",
      "outputs": [
        {
          "internalType": "bytes32",
          "name": "",
          "type": "bytes32"
        }
      ],
      "stateMutability": "view",
      "type": "function"
    },
    {
      "inputs": [
        {
          "internalType": "uint256",
          "name": "",
          "type": "uint256"
        }
      ],
      "name": "candidate",
      "outputs": [
        {
          "internalType": "string",
          "name": "name",
          "type": "string"
        },
        {
          "internalType": "address",
          "name": "add",
          "type": "address"
        }
      ],
      "stateMutability": "view",
      "type": "function"
    },
    {
      "inputs": [
        {
          "internalType": "string",
          "name": "_username",
          "type": "string"
        },
        {
          "internalType": "address",
          "name": "_address",
          "type": "address"
        }
      ],
      "name": "candidateValidate",
      "outputs": [
        {
          "internalType": "bool",
          "name": "",
          "type": "bool"
        }
      ],
      "stateMutability": "view",
      "type": "function"
    },
    {
      "inputs": [
        {
          "internalType": "string",
          "name": "_docName",
          "type": "string"
        }
      ],
      "name": "documentPush",
      "outputs": [
        {
          "internalType": "bytes32",
          "name": "",
          "type": "bytes32"
        }
      ],
      "stateMutability": "view",
      "type": "function"
    },
    {
      "inputs": [],
      "name": "getPDF",
      "outputs": [
        {
          "internalType": "string",
          "name": "",
          "type": "string"
        }
      ],
      "stateMutability": "view",
      "type": "function"
    },
    {
      "inputs": [
        {
          "internalType": "string",
          "name": "_docName",
          "type": "string"
        },
        {
          "internalType": "string",
          "name": "_docId",
          "type": "string"
        }
      ],
      "name": "hashArray",
      "outputs": [],
      "stateMutability": "nonpayable",
      "type": "function"
    },
    {
      "inputs": [],
      "name": "i_owner",
      "outputs": [
        {
          "internalType": "address",
          "name": "",
          "type": "address"
        }
      ],
      "stateMutability": "view",
      "type": "function"
    },
    {
      "inputs": [
        {
          "internalType": "uint256",
          "name": "",
          "type": "uint256"
        }
      ],
      "name": "recruiter",
      "outputs": [
        {
          "internalType": "string",
          "name": "name",
          "type": "string"
        },
        {
          "internalType": "address",
          "name": "add",
          "type": "address"
        }
      ],
      "stateMutability": "view",
      "type": "function"
    },
    {
      "inputs": [
        {
          "internalType": "string",
          "name": "_username",
          "type": "string"
        },
        {
          "internalType": "address",
          "name": "_address",
          "type": "address"
        }
      ],
      "name": "recruiterValidate",
      "outputs": [
        {
          "internalType": "bool",
          "name": "",
          "type": "bool"
        }
      ],
      "stateMutability": "view",
      "type": "function"
    },
    {
      "inputs": [
        {
          "internalType": "string",
          "name": "_ipfsHash",
          "type": "string"
        }
      ],
      "name": "storePDF",
      "outputs": [],
      "stateMutability": "nonpayable",
      "type": "function"
    },
    {
      "inputs": [
        {
          "internalType": "string",
          "name": "_docName",
          "type": "string"
        },
        {
          "internalType": "string",
          "name": "_docId",
          "type": "string"
        }
      ],
      "name": "uplodeCandidateDocument",
      "outputs": [],
      "stateMutability": "nonpayable",
      "type": "function"
    }
  ],
  "transactionHash": "0x85eaf112247f2dbb1e2ce00b2465d14de0a1458ec0d38c54a30a998877fc5865",
  "args": [],
  "numDeployments": 1,
  "solcInputHash": "bd66b3b9274d39f414f80db98bd8b02f",
  "bytecode": "0x60a06040526040518060400160405280600781526020017f6268617261746800000000000000000000000000000000000000000000000000815250600190816200004a91906200030d565b503480156200005857600080fd5b503373ffffffffffffffffffffffffffffffffffffffff1660808173ffffffffffffffffffffffffffffffffffffffff1681525050620003f4565b600081519050919050565b7f4e487b7100000000000000000000000000000000000000000000000000000000600052604160045260246000fd5b7f4e487b7100000000000000000000000000000000000000000000000000000000600052602260045260246000fd5b600060028204905060018216806200011557607f821691505b6020821081036200012b576200012a620000cd565b5b50919050565b60008190508160005260206000209050919050565b60006020601f8301049050919050565b600082821b905092915050565b600060088302620001957fffffffffffffffffffffffffffffffffffffffffffffffffffffffffffffffff8262000156565b620001a1868362000156565b95508019841693508086168417925050509392505050565b6000819050919050565b6000819050919050565b6000620001ee620001e8620001e284620001b9565b620001c3565b620001b9565b9050919050565b6000819050919050565b6200020a83620001cd565b620002226200021982620001f5565b84845462000163565b825550505050565b600090565b620002396200022a565b62000246818484620001ff565b505050565b5b818110156200026e57620002626000826200022f565b6001810190506200024c565b5050565b601f821115620002bd57620002878162000131565b620002928462000146565b81016020851015620002a2578190505b620002ba620002b18562000146565b8301826200024b565b50505b505050565b600082821c905092915050565b6000620002e260001984600802620002c2565b1980831691505092915050565b6000620002fd8383620002cf565b9150826002028217905092915050565b620003188262000093565b67ffffffffffffffff8111156200033457620003336200009e565b5b620003408254620000fc565b6200034d82828562000272565b600060209050601f83116001811462000385576000841562000370578287015190505b6200037c8582620002ef565b865550620003ec565b601f198416620003958662000131565b60005b82811015620003bf5784890151825560018201915060208501945060208101905062000398565b86831015620003df5784890151620003db601f891682620002cf565b8355505b6001600288020188555050505b505050505050565b60805161187862000417600039600081816109c40152610b0f01526118786000f3fe608060405234801561001057600080fd5b50600436106100cf5760003560e01c8063c0d37c701161008c578063e6d0621511610066578063e6d0621514610238578063ee4e8de714610254578063f277905c14610270578063f6b9eb01146102a0576100cf565b8063c0d37c70146101ba578063dba6335f146101ea578063e09407dd14610208576100cf565b806304dbc804146100d45780630f925a9f146100f05780631de43c4b1461010c57806337a38c771461013d5780634f1b55f71461016d5780637366e8ca14610189575b600080fd5b6100ee60048036038101906100e99190610f52565b6102be565b005b61010a60048036038101906101059190610f52565b610423565b005b61012660048036038101906101219190610fe4565b610588565b60405161013492919061109f565b60405180910390f35b610157600480360381019061015291906110cf565b610664565b6040516101649190611131565b60405180910390f35b6101876004803603810190610182919061114c565b610814565b005b6101a3600480360381019061019e9190610fe4565b6108c2565b6040516101b192919061109f565b60405180910390f35b6101d460048036038101906101cf9190610fe4565b61099e565b6040516101e19190611131565b60405180910390f35b6101f26109c2565b6040516101ff91906111c4565b60405180910390f35b610222600480360381019061021d9190610f52565b6109e6565b60405161022f91906111fa565b60405180910390f35b610252600480360381019061024d919061114c565b610b0d565b005b61026e600480360381019061026991906110cf565b610bce565b005b61028a60048036038101906102859190610f52565b610be1565b60405161029791906111fa565b60405180910390f35b6102a8610d08565b6040516102b59190611215565b60405180910390f35b6000805b60038054905081101561035f578273ffffffffffffffffffffffffffffffffffffffff16600382815481106102fa576102f9611237565b5b906000526020600020906002020160010160009054906101000a900473ffffffffffffffffffffffffffffffffffffffff1673ffffffffffffffffffffffffffffffffffffffff160361034c57600191505b808061035790611295565b9150506102c2565b506000810361041e57600460405180604001604052808581526020018473ffffffffffffffffffffffffffffffffffffffff16815250908060018154018082558091505060019003906000526020600020906002020160009091909190915060008201518160000190816103d391906114e9565b5060208201518160010160006101000a81548173ffffffffffffffffffffffffffffffffffffffff021916908373ffffffffffffffffffffffffffffffffffffffff16021790555050505b505050565b6000805b6003805490508110156104c4578273ffffffffffffffffffffffffffffffffffffffff166003828154811061045f5761045e611237565b5b906000526020600020906002020160010160009054906101000a900473ffffffffffffffffffffffffffffffffffffffff1673ffffffffffffffffffffffffffffffffffffffff16036104b157600191505b80806104bc90611295565b915050610427565b506000810361058357600360405180604001604052808581526020018473ffffffffffffffffffffffffffffffffffffffff168152509080600181540180825580915050600190039060005260206000209060020201600090919091909150600082015181600001908161053891906114e9565b5060208201518160010160006101000a81548173ffffffffffffffffffffffffffffffffffffffff021916908373ffffffffffffffffffffffffffffffffffffffff16021790555050505b505050565b6003818154811061059857600080fd5b90600052602060002090600202016000915090508060000180546105bb9061130c565b80601f01602080910402602001604051908101604052809291908181526020018280546105e79061130c565b80156106345780601f1061060957610100808354040283529160200191610634565b820191906000526020600020905b81548152906001019060200180831161061757829003601f168201915b5050505050908060010160009054906101000a900473ffffffffffffffffffffffffffffffffffffffff16905082565b600080600090505b6000803373ffffffffffffffffffffffffffffffffffffffff1673ffffffffffffffffffffffffffffffffffffffff1681526020019081526020016000208054905081101561080757826040516020016106c691906115f7565b604051602081830303815290604052805190602001206000803373ffffffffffffffffffffffffffffffffffffffff1673ffffffffffffffffffffffffffffffffffffffff168152602001908152602001600020828154811061072c5761072b611237565b5b906000526020600020906002020160000160405160200161074d9190611691565b60405160208183030381529060405280519060200120036107f4576000803373ffffffffffffffffffffffffffffffffffffffff1673ffffffffffffffffffffffffffffffffffffffff16815260200190815260200160002081815481106107b8576107b7611237565b5b90600052602060002090600202016040516020016107d69190611781565b6040516020818303038152906040528051906020012091505061080f565b80806107ff90611295565b91505061066c565b506000801b90505b919050565b6000803373ffffffffffffffffffffffffffffffffffffffff1673ffffffffffffffffffffffffffffffffffffffff168152602001908152602001600020604051806040016040528084815260200183815250908060018154018082558091505060019003906000526020600020906002020160009091909190915060008201518160000190816108a591906114e9565b5060208201518160010190816108bb91906114e9565b5050505050565b600481815481106108d257600080fd5b90600052602060002090600202016000915090508060000180546108f59061130c565b80601f01602080910402602001604051908101604052809291908181526020018280546109219061130c565b801561096e5780601f106109435761010080835404028352916020019161096e565b820191906000526020600020905b81548152906001019060200180831161095157829003601f168201915b5050505050908060010160009054906101000a900473ffffffffffffffffffffffffffffffffffffffff16905082565b600581815481106109ae57600080fd5b906000526020600020016000915090505481565b7f000000000000000000000000000000000000000000000000000000000000000081565b600080600090505b600380549050811015610b01578273ffffffffffffffffffffffffffffffffffffffff1660038281548110610a2657610a25611237565b5b906000526020600020906002020160010160009054906101000a900473ffffffffffffffffffffffffffffffffffffffff1673ffffffffffffffffffffffffffffffffffffffff1603610aee5783604051602001610a8491906115f7565b6040516020818303038152906040528051906020012060038281548110610aae57610aad611237565b5b9060005260206000209060020201600001604051602001610acf9190611691565b6040516020818303038152906040528051906020012014915050610b07565b8080610af990611295565b9150506109ee565b50600090505b92915050565b7f000000000000000000000000000000000000000000000000000000000000000073ffffffffffffffffffffffffffffffffffffffff163373ffffffffffffffffffffffffffffffffffffffff1603610bca5760006040518060400160405280848152602001838152509050600581604051602001610b8c9190611820565b604051602081830303815290604052805190602001209080600181540180825580915050600190039060005260206000200160009091909190915055505b5050565b8060029081610bdd91906114e9565b5050565b600080600090505b600480549050811015610cfc578273ffffffffffffffffffffffffffffffffffffffff1660048281548110610c2157610c20611237565b5b906000526020600020906002020160010160009054906101000a900473ffffffffffffffffffffffffffffffffffffffff1673ffffffffffffffffffffffffffffffffffffffff1603610ce95783604051602001610c7f91906115f7565b6040516020818303038152906040528051906020012060048281548110610ca957610ca8611237565b5b9060005260206000209060020201600001604051602001610cca9190611691565b6040516020818303038152906040528051906020012014915050610d02565b8080610cf490611295565b915050610be9565b50600090505b92915050565b606060028054610d179061130c565b80601f0160208091040260200160405190810160405280929190818152602001828054610d439061130c565b8015610d905780601f10610d6557610100808354040283529160200191610d90565b820191906000526020600020905b815481529060010190602001808311610d7357829003601f168201915b5050505050905090565b6000604051905090565b600080fd5b600080fd5b600080fd5b600080fd5b6000601f19601f8301169050919050565b7f4e487b7100000000000000000000000000000000000000000000000000000000600052604160045260246000fd5b610e0182610db8565b810181811067ffffffffffffffff82111715610e2057610e1f610dc9565b5b80604052505050565b6000610e33610d9a565b9050610e3f8282610df8565b919050565b600067ffffffffffffffff821115610e5f57610e5e610dc9565b5b610e6882610db8565b9050602081019050919050565b82818337600083830152505050565b6000610e97610e9284610e44565b610e29565b905082815260208101848484011115610eb357610eb2610db3565b5b610ebe848285610e75565b509392505050565b600082601f830112610edb57610eda610dae565b5b8135610eeb848260208601610e84565b91505092915050565b600073ffffffffffffffffffffffffffffffffffffffff82169050919050565b6000610f1f82610ef4565b9050919050565b610f2f81610f14565b8114610f3a57600080fd5b50565b600081359050610f4c81610f26565b92915050565b60008060408385031215610f6957610f68610da4565b5b600083013567ffffffffffffffff811115610f8757610f86610da9565b5b610f9385828601610ec6565b9250506020610fa485828601610f3d565b9150509250929050565b6000819050919050565b610fc181610fae565b8114610fcc57600080fd5b50565b600081359050610fde81610fb8565b92915050565b600060208284031215610ffa57610ff9610da4565b5b600061100884828501610fcf565b91505092915050565b600081519050919050565b600082825260208201905092915050565b60005b8381101561104b578082015181840152602081019050611030565b60008484015250505050565b600061106282611011565b61106c818561101c565b935061107c81856020860161102d565b61108581610db8565b840191505092915050565b61109981610f14565b82525050565b600060408201905081810360008301526110b98185611057565b90506110c86020830184611090565b9392505050565b6000602082840312156110e5576110e4610da4565b5b600082013567ffffffffffffffff81111561110357611102610da9565b5b61110f84828501610ec6565b91505092915050565b6000819050919050565b61112b81611118565b82525050565b60006020820190506111466000830184611122565b92915050565b6000806040838503121561116357611162610da4565b5b600083013567ffffffffffffffff81111561118157611180610da9565b5b61118d85828601610ec6565b925050602083013567ffffffffffffffff8111156111ae576111ad610da9565b5b6111ba85828601610ec6565b9150509250929050565b60006020820190506111d96000830184611090565b92915050565b60008115159050919050565b6111f4816111df565b82525050565b600060208201905061120f60008301846111eb565b92915050565b6000602082019050818103600083015261122f8184611057565b905092915050565b7f4e487b7100000000000000000000000000000000000000000000000000000000600052603260045260246000fd5b7f4e487b7100000000000000000000000000000000000000000000000000000000600052601160045260246000fd5b60006112a082610fae565b91507fffffffffffffffffffffffffffffffffffffffffffffffffffffffffffffffff82036112d2576112d1611266565b5b600182019050919050565b7f4e487b7100000000000000000000000000000000000000000000000000000000600052602260045260246000fd5b6000600282049050600182168061132457607f821691505b602082108103611337576113366112dd565b5b50919050565b60008190508160005260206000209050919050565b60006020601f8301049050919050565b600082821b905092915050565b60006008830261139f7fffffffffffffffffffffffffffffffffffffffffffffffffffffffffffffffff82611362565b6113a98683611362565b95508019841693508086168417925050509392505050565b6000819050919050565b60006113e66113e16113dc84610fae565b6113c1565b610fae565b9050919050565b6000819050919050565b611400836113cb565b61141461140c826113ed565b84845461136f565b825550505050565b600090565b61142961141c565b6114348184846113f7565b505050565b5b818110156114585761144d600082611421565b60018101905061143a565b5050565b601f82111561149d5761146e8161133d565b61147784611352565b81016020851015611486578190505b61149a61149285611352565b830182611439565b50505b505050565b600082821c905092915050565b60006114c0600019846008026114a2565b1980831691505092915050565b60006114d983836114af565b9150826002028217905092915050565b6114f282611011565b67ffffffffffffffff81111561150b5761150a610dc9565b5b611515825461130c565b61152082828561145c565b600060209050601f8311600181146115535760008415611541578287015190505b61154b85826114cd565b8655506115b3565b601f1984166115618661133d565b60005b8281101561158957848901518255600182019150602085019450602081019050611564565b868310156115a657848901516115a2601f8916826114af565b8355505b6001600288020188555050505b505050505050565b600081905092915050565b60006115d182611011565b6115db81856115bb565b93506115eb81856020860161102d565b80840191505092915050565b600061160382846115c6565b915081905092915050565b6000815461161b8161130c565b61162581866115bb565b94506001821660008114611640576001811461165557611688565b60ff1983168652811515820286019350611688565b61165e8561133d565b60005b8381101561168057815481890152600182019150602081019050611661565b838801955050505b50505092915050565b600061169d828461160e565b915081905092915050565b600082825260208201905092915050565b600081546116c68161130c565b6116d081866116a8565b945060018216600081146116eb576001811461170157611734565b60ff198316865281151560200286019350611734565b61170a8561133d565b60005b8381101561172c5781548189015260018201915060208101905061170d565b808801955050505b50505092915050565b6000604083016000808401858303600087015261175a83826116b9565b92505060018401858303602087015261177383826116b9565b925050819250505092915050565b6000602082019050818103600083015261179b818461173d565b905092915050565b60006117ae82611011565b6117b881856116a8565b93506117c881856020860161102d565b6117d181610db8565b840191505092915050565b600060408301600083015184820360008601526117f982826117a3565b9150506020830151848203602086015261181382826117a3565b9150508091505092915050565b6000602082019050818103600083015261183a81846117dc565b90509291505056fea264697066735822122021af7caccbb9dd979dbf018519824b7ed2cd581979dea0763575d11fc35ad8ac64736f6c63430008120033",
  "devdoc": {
    "kind": "dev",
    "methods": {},
    "version": 1
  },
  "userdoc": {
    "kind": "user",
    "methods": {},
    "version": 1
  },
  "storageLayout": {
    "storage": [
      {
        "astId": 17,
        "contract": "contracts/Ebv.sol:Ebv",
        "label": "userData",
        "offset": 0,
        "slot": "0",
        "type": "t_mapping(t_address,t_array(t_struct(document)11_storage)dyn_storage)"
      },
      {
        "astId": 22,
        "contract": "contracts/Ebv.sol:Ebv",
        "label": "i_ownerName",
        "offset": 0,
        "slot": "1",
        "type": "t_string_storage"
      },
      {
        "astId": 24,
        "contract": "contracts/Ebv.sol:Ebv",
        "label": "ipfsHash",
        "offset": 0,
        "slot": "2",
        "type": "t_string_storage"
      },
      {
        "astId": 28,
        "contract": "contracts/Ebv.sol:Ebv",
        "label": "candidate",
        "offset": 0,
        "slot": "3",
        "type": "t_array(t_struct(user)6_storage)dyn_storage"
      },
      {
        "astId": 32,
        "contract": "contracts/Ebv.sol:Ebv",
        "label": "recruiter",
        "offset": 0,
        "slot": "4",
        "type": "t_array(t_struct(user)6_storage)dyn_storage"
      },
      {
        "astId": 35,
        "contract": "contracts/Ebv.sol:Ebv",
        "label": "arrHash",
        "offset": 0,
        "slot": "5",
        "type": "t_array(t_bytes32)dyn_storage"
      }
    ],
    "types": {
      "t_address": {
        "encoding": "inplace",
        "label": "address",
        "numberOfBytes": "20"
      },
      "t_array(t_bytes32)dyn_storage": {
        "base": "t_bytes32",
        "encoding": "dynamic_array",
        "label": "bytes32[]",
        "numberOfBytes": "32"
      },
      "t_array(t_struct(document)11_storage)dyn_storage": {
        "base": "t_struct(document)11_storage",
        "encoding": "dynamic_array",
        "label": "struct Ebv.document[]",
        "numberOfBytes": "32"
      },
      "t_array(t_struct(user)6_storage)dyn_storage": {
        "base": "t_struct(user)6_storage",
        "encoding": "dynamic_array",
        "label": "struct Ebv.user[]",
        "numberOfBytes": "32"
      },
      "t_bytes32": {
        "encoding": "inplace",
        "label": "bytes32",
        "numberOfBytes": "32"
      },
      "t_mapping(t_address,t_array(t_struct(document)11_storage)dyn_storage)": {
        "encoding": "mapping",
        "key": "t_address",
        "label": "mapping(address => struct Ebv.document[])",
        "numberOfBytes": "32",
        "value": "t_array(t_struct(document)11_storage)dyn_storage"
      },
      "t_string_storage": {
        "encoding": "bytes",
        "label": "string",
        "numberOfBytes": "32"
      },
      "t_struct(document)11_storage": {
        "encoding": "inplace",
        "label": "struct Ebv.document",
        "members": [
          {
            "astId": 8,
            "contract": "contracts/Ebv.sol:Ebv",
            "label": "docName",
            "offset": 0,
            "slot": "0",
            "type": "t_string_storage"
          },
          {
            "astId": 10,
            "contract": "contracts/Ebv.sol:Ebv",
            "label": "docId",
            "offset": 0,
            "slot": "1",
            "type": "t_string_storage"
          }
        ],
        "numberOfBytes": "64"
      },
      "t_struct(user)6_storage": {
        "encoding": "inplace",
        "label": "struct Ebv.user",
        "members": [
          {
            "astId": 3,
            "contract": "contracts/Ebv.sol:Ebv",
            "label": "name",
            "offset": 0,
            "slot": "0",
            "type": "t_string_storage"
          },
          {
            "astId": 5,
            "contract": "contracts/Ebv.sol:Ebv",
            "label": "add",
            "offset": 0,
            "slot": "1",
            "type": "t_address"
          }
        ],
        "numberOfBytes": "64"
      }
    }
  }
}